{
    "_format": "hh-sol-artifact-1",
    "contractName": "LoanFactory",
    "sourceName": "contracts/LoanFactory.sol",
    "abi": [
        {
            "inputs": [
                {
                    "internalType": "address",
                    "name": "registry",
                    "type": "address"
                }
            ],
            "stateMutability": "nonpayable",
            "type": "constructor"
        },
        {
            "anonymous": false,
            "inputs": [
                {
                    "indexed": false,
                    "internalType": "int256",
                    "name": "borrowAmount",
                    "type": "int256"
                },
                {
                    "indexed": false,
                    "internalType": "int8",
                    "name": "interestRate",
                    "type": "int8"
                },
                {
                    "indexed": false,
                    "internalType": "int8",
                    "name": "paybackMonths",
                    "type": "int8"
                },
                {
                    "indexed": false,
                    "internalType": "address",
                    "name": "employer",
                    "type": "address"
                },
                {
                    "indexed": false,
                    "internalType": "address",
                    "name": "borrower",
                    "type": "address"
                },
                {
                    "indexed": false,
                    "internalType": "contract ISuperToken",
                    "name": "borrowToken",
                    "type": "address"
                }
            ],
            "name": "loanCreated",
            "type": "event"
        },
        {
            "inputs": [
                {
                    "internalType": "int256",
                    "name": "_borrowAmount",
                    "type": "int256"
                },
                {
                    "internalType": "int8",
                    "name": "_interestRate",
                    "type": "int8"
                },
                {
                    "internalType": "int8",
                    "name": "_paybackMonths",
                    "type": "int8"
                },
                {
                    "internalType": "address",
                    "name": "_employer",
                    "type": "address"
                },
                {
                    "internalType": "address",
                    "name": "_borrower",
                    "type": "address"
                },
                {
                    "internalType": "contract ISuperToken",
                    "name": "_borrowToken",
                    "type": "address"
                },
                {
                    "internalType": "contract ISuperfluid",
                    "name": "_host",
                    "type": "address"
                }
            ],
            "name": "createNewLoan",
            "outputs": [
                {
                    "internalType": "uint256",
                    "name": "",
                    "type": "uint256"
                }
            ],
            "stateMutability": "nonpayable",
            "type": "function"
        },
        {
            "inputs": [
                {
                    "internalType": "address",
                    "name": "",
                    "type": "address"
                }
            ],
            "name": "employmentLoanOwners",
            "outputs": [
                {
                    "internalType": "uint256",
                    "name": "",
                    "type": "uint256"
                }
            ],
            "stateMutability": "view",
            "type": "function"
        },
        {
            "inputs": [
                {
                    "internalType": "uint256",
                    "name": "",
                    "type": "uint256"
                }
            ],
            "name": "idToLoan",
            "outputs": [
                {
                    "internalType": "contract EmploymentLoan",
                    "name": "",
                    "type": "address"
                }
            ],
            "stateMutability": "view",
            "type": "function"
        },
        {
            "inputs": [],
            "name": "loanId",
            "outputs": [
                {
                    "internalType": "uint256",
                    "name": "",
                    "type": "uint256"
                }
            ],
            "stateMutability": "view",
            "type": "function"
        }
    ],
    "bytecode": "0x60806040523480156200001157600080fd5b5060405162006323380380620063238339818101604052810190620000379190620001b3565b80600160006101000a81548173ffffffffffffffffffffffffffffffffffffffff021916908373ffffffffffffffffffffffffffffffffffffffff160217905550600160009054906101000a900473ffffffffffffffffffffffffffffffffffffffff1673ffffffffffffffffffffffffffffffffffffffff16633a9151b030604051602001620000c89062000231565b6040516020818303038152906040526040518363ffffffff1660e01b8152600401620000f692919062000308565b6020604051808303816000875af115801562000116573d6000803e3d6000fd5b505050506040513d601f19601f820116820180604052508101906200013c919062000377565b60028190555050620003a9565b600080fd5b600073ffffffffffffffffffffffffffffffffffffffff82169050919050565b60006200017b826200014e565b9050919050565b6200018d816200016e565b81146200019957600080fd5b50565b600081519050620001ad8162000182565b92915050565b600060208284031215620001cc57620001cb62000149565b5b6000620001dc848285016200019c565b91505092915050565b7f435245415445205441424c45206c6f616e5f3500000000000000000000000000815250565b7f20286c6f616e496420696e742900000000000000000000000000000000000000815250565b60006200023e82620001e5565b6013820191506200024f826200020b565b600d82019150819050919050565b62000268816200016e565b82525050565b600081519050919050565b600082825260208201905092915050565b60005b83811015620002aa5780820151818401526020810190506200028d565b60008484015250505050565b6000601f19601f8301169050919050565b6000620002d4826200026e565b620002e0818562000279565b9350620002f28185602086016200028a565b620002fd81620002b6565b840191505092915050565b60006040820190506200031f60008301856200025d565b8181036020830152620003338184620002c7565b90509392505050565b6000819050919050565b62000351816200033c565b81146200035d57600080fd5b50565b600081519050620003718162000346565b92915050565b60006020828403121562000390576200038f62000149565b5b6000620003a08482850162000360565b91505092915050565b615f6a80620003b96000396000f3fe60806040523480156200001157600080fd5b5060043610620000525760003560e01c806327ef06541462000057578063614da4ac146200008d578063c95669a514620000c3578063eee2662714620000e5575b600080fd5b6200007560048036038101906200006f919062000682565b6200011b565b60405162000084919062000750565b60405180910390f35b620000ab6004803603810190620000a591906200079e565b6200033d565b604051620000ba91906200083b565b60405180910390f35b620000cd62000370565b604051620000dc919062000750565b60405180910390f35b620001036004803603810190620000fd919062000858565b62000376565b60405162000112919062000750565b60405180910390f35b60008088888888888888604051620001339062000507565b62000145979695949392919062000940565b604051809103906000f08015801562000162573d6000803e3d6000fd5b5090506000808154809291906200017990620009ec565b9190505550600160009054906101000a900473ffffffffffffffffffffffffffffffffffffffff1673ffffffffffffffffffffffffffffffffffffffff1663eaf5d04e30600254620001cd6002546200038e565b620001da6000546200038e565b604051602001620001ed92919062000b24565b6040516020818303038152906040526040518463ffffffff1660e01b81526004016200021c9392919062000be2565b600060405180830381600087803b1580156200023757600080fd5b505af11580156200024c573d6000803e3d6000fd5b505050507f39c8ece6c17bf4b8980bc6ec37c1cb579c4a97160012e573acdd73fe4dedfe988989898989896040516200028b9695949392919062000c26565b60405180910390a180600360008054815260200190815260200160002060006101000a81548173ffffffffffffffffffffffffffffffffffffffff021916908373ffffffffffffffffffffffffffffffffffffffff160217905550600054600460003373ffffffffffffffffffffffffffffffffffffffff1673ffffffffffffffffffffffffffffffffffffffff16815260200190815260200160002081905550600054915050979650505050505050565b60036020528060005260406000206000915054906101000a900473ffffffffffffffffffffffffffffffffffffffff1681565b60005481565b60046020528060005260406000206000915090505481565b606060008203620003d7576040518060400160405280600181526020017f3000000000000000000000000000000000000000000000000000000000000000815250905062000502565b600082905060005b600082146200040f578080620003f590620009ec565b915050600a8262000407919062000cc2565b9150620003df565b60008167ffffffffffffffff8111156200042e576200042d62000cfa565b5b6040519080825280601f01601f191660200182016040528015620004615781602001600182028036833780820191505090505b5090505b60008514620004fb576001826200047d919062000d29565b9150600a856200048e919062000d64565b60306200049c919062000d9c565b60f81b818381518110620004b557620004b462000dd7565b5b60200101907effffffffffffffffffffffffffffffffffffffffffffffffffffffffffffff1916908160001a905350600a85620004f3919062000cc2565b945062000465565b8093505050505b919050565b61512e8062000e0783390190565b600080fd5b6000819050919050565b6200052f816200051a565b81146200053b57600080fd5b50565b6000813590506200054f8162000524565b92915050565b60008160000b9050919050565b6200056d8162000555565b81146200057957600080fd5b50565b6000813590506200058d8162000562565b92915050565b600073ffffffffffffffffffffffffffffffffffffffff82169050919050565b6000620005c08262000593565b9050919050565b620005d281620005b3565b8114620005de57600080fd5b50565b600081359050620005f281620005c7565b92915050565b60006200060582620005b3565b9050919050565b6200061781620005f8565b81146200062357600080fd5b50565b60008135905062000637816200060c565b92915050565b60006200064a82620005b3565b9050919050565b6200065c816200063d565b81146200066857600080fd5b50565b6000813590506200067c8162000651565b92915050565b600080600080600080600060e0888a031215620006a457620006a362000515565b5b6000620006b48a828b016200053e565b9750506020620006c78a828b016200057c565b9650506040620006da8a828b016200057c565b9550506060620006ed8a828b01620005e1565b9450506080620007008a828b01620005e1565b93505060a0620007138a828b0162000626565b92505060c0620007268a828b016200066b565b91505092959891949750929550565b6000819050919050565b6200074a8162000735565b82525050565b60006020820190506200076760008301846200073f565b92915050565b620007788162000735565b81146200078457600080fd5b50565b60008135905062000798816200076d565b92915050565b600060208284031215620007b757620007b662000515565b5b6000620007c78482850162000787565b91505092915050565b6000819050919050565b6000620007fb620007f5620007ef8462000593565b620007d0565b62000593565b9050919050565b60006200080f82620007da565b9050919050565b6000620008238262000802565b9050919050565b620008358162000816565b82525050565b60006020820190506200085260008301846200082a565b92915050565b60006020828403121562000871576200087062000515565b5b60006200088184828501620005e1565b91505092915050565b62000895816200051a565b82525050565b620008a68162000555565b82525050565b6000620008cd620008c7620008c18462000555565b620007d0565b6200051a565b9050919050565b620008df81620008ac565b82525050565b620008f081620005b3565b82525050565b6000620009038262000802565b9050919050565b6200091581620008f6565b82525050565b6000620009288262000802565b9050919050565b6200093a816200091b565b82525050565b600060e08201905062000957600083018a6200088a565b6200096660208301896200089b565b620009756040830188620008d4565b620009846060830187620008e5565b620009936080830186620008e5565b620009a260a08301856200090a565b620009b160c08301846200092f565b98975050505050505050565b7f4e487b7100000000000000000000000000000000000000000000000000000000600052601160045260246000fd5b6000620009f98262000735565b91507fffffffffffffffffffffffffffffffffffffffffffffffffffffffffffffffff820362000a2e5762000a2d620009bd565b5b600182019050919050565b7f494e5345525420494e544f206c6f616e5f355f00000000000000000000000000815250565b600081519050919050565b600081905092915050565b60005b8381101562000a9557808201518184015260208101905062000a78565b60008484015250505050565b600062000aae8262000a5f565b62000aba818562000a6a565b935062000acc81856020860162000a75565b80840191505092915050565b7f2056414c55455320280000000000000000000000000000000000000000000000815250565b7f2900000000000000000000000000000000000000000000000000000000000000815250565b600062000b318262000a39565b60138201915062000b43828562000aa1565b915062000b508262000ad8565b60098201915062000b62828462000aa1565b915062000b6f8262000afe565b6001820191508190509392505050565b600082825260208201905092915050565b6000601f19601f8301169050919050565b600062000bae8262000a5f565b62000bba818562000b7f565b935062000bcc81856020860162000a75565b62000bd78162000b90565b840191505092915050565b600060608201905062000bf96000830186620008e5565b62000c0860208301856200073f565b818103604083015262000c1c818462000ba1565b9050949350505050565b600060c08201905062000c3d60008301896200088a565b62000c4c60208301886200089b565b62000c5b60408301876200089b565b62000c6a6060830186620008e5565b62000c796080830185620008e5565b62000c8860a08301846200090a565b979650505050505050565b7f4e487b7100000000000000000000000000000000000000000000000000000000600052601260045260246000fd5b600062000ccf8262000735565b915062000cdc8362000735565b92508262000cef5762000cee62000c93565b5b828204905092915050565b7f4e487b7100000000000000000000000000000000000000000000000000000000600052604160045260246000fd5b600062000d368262000735565b915062000d438362000735565b925082820390508181111562000d5e5762000d5d620009bd565b5b92915050565b600062000d718262000735565b915062000d7e8362000735565b92508262000d915762000d9062000c93565b5b828206905092915050565b600062000da98262000735565b915062000db68362000735565b925082820190508082111562000dd15762000dd0620009bd565b5b92915050565b7f4e487b7100000000000000000000000000000000000000000000000000000000600052603260045260246000fdfe6101606040523480156200001257600080fd5b506040516200512e3803806200512e8339818101604052810190620000389190620004c0565b86608081815250508560000b60a08160000b815250508460c081815250508373ffffffffffffffffffffffffffffffffffffffff1660e08173ffffffffffffffffffffffffffffffffffffffff16815250508273ffffffffffffffffffffffffffffffffffffffff166101008173ffffffffffffffffffffffffffffffffffffffff16815250508173ffffffffffffffffffffffffffffffffffffffff166101408173ffffffffffffffffffffffffffffffffffffffff16815250508073ffffffffffffffffffffffffffffffffffffffff166101208173ffffffffffffffffffffffffffffffffffffffff16815250506000600260146101000a81548160ff02191690831515021790555060008173ffffffffffffffffffffffffffffffffffffffff1663b6d200de7fa9214cc96615e0085d3bb077758db69497dc2dce3b2b1e97bc93c3d18d83efd36040518263ffffffff1660e01b8152600401620001a191906200058e565b602060405180830381865afa158015620001bf573d6000803e3d6000fd5b505050506040513d601f19601f82011682018060405250810190620001e59190620005f0565b905060405180604001604052808373ffffffffffffffffffffffffffffffffffffffff1681526020018273ffffffffffffffffffffffffffffffffffffffff168152506000808201518160000160006101000a81548173ffffffffffffffffffffffffffffffffffffffff021916908373ffffffffffffffffffffffffffffffffffffffff16021790555060208201518160010160006101000a81548173ffffffffffffffffffffffffffffffffffffffff021916908373ffffffffffffffffffffffffffffffffffffffff1602179055509050506000641000000000640400000000640100000000600117171790508273ffffffffffffffffffffffffffffffffffffffff1663ad3915c8826040518263ffffffff1660e01b81526004016200031091906200063d565b600060405180830381600087803b1580156200032b57600080fd5b505af115801562000340573d6000803e3d6000fd5b505050505050505050505050506200065a565b600080fd5b6000819050919050565b6200036d8162000358565b81146200037957600080fd5b50565b6000815190506200038d8162000362565b92915050565b60008160000b9050919050565b620003ab8162000393565b8114620003b757600080fd5b50565b600081519050620003cb81620003a0565b92915050565b600073ffffffffffffffffffffffffffffffffffffffff82169050919050565b6000620003fe82620003d1565b9050919050565b6200041081620003f1565b81146200041c57600080fd5b50565b600081519050620004308162000405565b92915050565b60006200044382620003f1565b9050919050565b620004558162000436565b81146200046157600080fd5b50565b60008151905062000475816200044a565b92915050565b60006200048882620003f1565b9050919050565b6200049a816200047b565b8114620004a657600080fd5b50565b600081519050620004ba816200048f565b92915050565b600080600080600080600060e0888a031215620004e257620004e162000353565b5b6000620004f28a828b016200037c565b9750506020620005058a828b01620003ba565b9650506040620005188a828b016200037c565b95505060606200052b8a828b016200041f565b94505060806200053e8a828b016200041f565b93505060a0620005518a828b0162000464565b92505060c0620005648a828b01620004a9565b91505092959891949750929550565b6000819050919050565b620005888162000573565b82525050565b6000602082019050620005a560008301846200057d565b92915050565b6000620005b882620003f1565b9050919050565b620005ca81620005ab565b8114620005d657600080fd5b50565b600081519050620005ea81620005bf565b92915050565b60006020828403121562000609576200060862000353565b5b60006200061984828501620005d9565b91505092915050565b6000819050919050565b620006378162000622565b82525050565b60006020820190506200065460008301846200062c565b92915050565b60805160a05160c05160e0516101005161012051610140516148ce62000860600039600081816105fe0152818161090c015281816109cd01528181610af001528181610bb401528181610c7f01528181610cff01528181610ef101528181610fdc015281816110ff0152818161115601528181611249015281816113330152818161138a015281816115f8015281816116c80152818161173d0152818161180801528181611868015281816119ef01528181611ab301528181611b9e01528181611e9b01528181611ef801528181611fc0015281816120bb0152818161212701528181612191015281816121f201528181612288015281816122e5015281816123460152818161254a015281816125b3015261261401526000818161157d01526123d501526000818161086301528181610a0a01528181610bd601528181610c5e01528181610ffe01528181611135015281816113690152818161175f015281816117e701528181611bc001528181611ed701528181611fe20152818161209a01528181612106015281816121d101528181612267015281816123250152818161252901526125f301526000818161092d01528181610e1d015261247c01526000818161074201528181610db70152610e41015260008181610765015261083f015260008181610789015281816107be01528181610a2b0152610e6501526148ce6000f3fe608060405234801561001057600080fd5b506004361061014d5760003560e01c8063884d1f40116100c3578063bcead63e1161007c578063bcead63e14610396578063d116eb5b146103b4578063d3112b2e146103d0578063d86ed3e5146103ef578063f437bc591461041f578063fea7b5931461043d5761014d565b8063884d1f40146102e457806397dffc61146103145780639ed53f7a1461031e578063ae200e791461033c578063ae5a02341461035a578063b7dd32aa146103785761014d565b806353c11f991161011557806353c11f991461020c5780635e084a411461023c5780635f9e7d771461025a5780637c3a00fd1461028a5780637df1f1b9146102a8578063850c4ca0146102c65761014d565b8063215eed0214610152578063230dbd291461017057806330d9c915146101a05780633cf4d1f8146101d0578063456dc17a146101ee575b600080fd5b61015a610447565b6040516101679190613221565b60405180910390f35b61018a6004803603810190610185919061337d565b61046b565b60405161019791906134fc565b60405180910390f35b6101ba60048036038101906101b5919061351e565b6105ac565b6040516101c791906134fc565b60405180910390f35b6101d86105e9565b6040516101e591906135f5565b60405180910390f35b6101f66105fc565b604051610203919061366f565b60405180910390f35b6102266004803603810190610221919061337d565b610620565b60405161023391906134fc565b60405180910390f35b61024461073a565b60405161025191906136a6565b60405180910390f35b610274600480360381019061026f919061351e565b610800565b60405161028191906134fc565b60405180910390f35b61029261083d565b60405161029f91906136dd565b60405180910390f35b6102b0610861565b6040516102bd9190613707565b60405180910390f35b6102ce610885565b6040516102db919061373b565b60405180910390f35b6102fe60048036038101906102f9919061351e565b61088b565b60405161030b91906134fc565b60405180910390f35b61031c6108c8565b005b610326610da0565b604051610333919061373b565b60405180910390f35b610344610e1b565b6040516103519190613707565b60405180910390f35b610362610e3f565b60405161036f919061376f565b60405180910390f35b610380610e63565b60405161038d919061376f565b60405180910390f35b61039e610e87565b6040516103ab9190613707565b60405180910390f35b6103ce60048036038101906103c991906137b6565b610ead565b005b6103d86113e8565b6040516103e6929190613825565b60405180910390f35b6104096004803603810190610404919061337d565b61143a565b60405161041691906134fc565b60405180910390f35b61042761157b565b604051610434919061384e565b60405180910390f35b61044561159f565b005b7fa9214cc96615e0085d3bb077758db69497dc2dce3b2b1e97bc93c3d18d83efd381565b6060898961047882611864565b6104b7576040517f08c379a00000000000000000000000000000000000000000000000000000000081526004016104ae906138c6565b60405180910390fd5b6104c0816118bc565b6104ff576040517f08c379a00000000000000000000000000000000000000000000000000000000081526004016104f690613958565b60405180910390fd5b6000800160009054906101000a900473ffffffffffffffffffffffffffffffffffffffff1673ffffffffffffffffffffffffffffffffffffffff163373ffffffffffffffffffffffffffffffffffffffff1614610591576040517f08c379a0000000000000000000000000000000000000000000000000000000008152600401610588906139c4565b60405180910390fd5b61059b8585611956565b925050509998505050505050505050565b60606040517f08c379a00000000000000000000000000000000000000000000000000000000081526004016105e090613a56565b60405180910390fd5b600260149054906101000a900460ff1681565b7f000000000000000000000000000000000000000000000000000000000000000081565b60606000800160009054906101000a900473ffffffffffffffffffffffffffffffffffffffff1673ffffffffffffffffffffffffffffffffffffffff163373ffffffffffffffffffffffffffffffffffffffff16146106b4576040517f08c379a00000000000000000000000000000000000000000000000000000000081526004016106ab906139c4565b60405180910390fd5b6106bd896118bc565b15806106cf57506106cd8a611864565b155b156107205782828080601f016020809104026020016040519081016040528093929190818152602001838380828437600081840152601f19601f82011690508083019250505050505050905061072d565b61072a8383611956565b90505b9998505050505050505050565b6000622819a07f000000000000000000000000000000000000000000000000000000000000000060647f000000000000000000000000000000000000000000000000000000000000000060000b7f00000000000000000000000000000000000000000000000000000000000000006107b29190613aa5565b6107bc9190613b4c565b7f00000000000000000000000000000000000000000000000000000000000000006107e79190613bb6565b6107f19190613b4c565b6107fb9190613b4c565b905090565b60606040517f08c379a000000000000000000000000000000000000000000000000000000000815260040161083490613c6c565b60405180910390fd5b7f000000000000000000000000000000000000000000000000000000000000000081565b7f000000000000000000000000000000000000000000000000000000000000000081565b60035481565b60606040517f08c379a00000000000000000000000000000000000000000000000000000000081526004016108bf90613cfe565b60405180910390fd5b60008060010160009054906101000a900473ffffffffffffffffffffffffffffffffffffffff1673ffffffffffffffffffffffffffffffffffffffff1663e6a1e8887f00000000000000000000000000000000000000000000000000000000000000007f0000000000000000000000000000000000000000000000000000000000000000306040518463ffffffff1660e01b815260040161096b93929190613d1e565b608060405180830381865afa158015610988573d6000803e3d6000fd5b505050506040513d601f19601f820116820180604052508101906109ac9190613d96565b50509150506109b961073a565b600b0b81600b0b12156109cb57600080fd5b7f000000000000000000000000000000000000000000000000000000000000000073ffffffffffffffffffffffffffffffffffffffff166323b872dd337f00000000000000000000000000000000000000000000000000000000000000007f00000000000000000000000000000000000000000000000000000000000000006040518463ffffffff1660e01b8152600401610a6893929190613dfd565b6020604051808303816000875af1158015610a87573d6000803e3d6000fd5b505050506040513d601f19601f82011682018060405250810190610aab9190613e60565b5060008060010160009054906101000a900473ffffffffffffffffffffffffffffffffffffffff1673ffffffffffffffffffffffffffffffffffffffff1663e8e7e2d17f0000000000000000000000000000000000000000000000000000000000000000306040518363ffffffff1660e01b8152600401610b2d929190613e8d565b602060405180830381865afa158015610b4a573d6000803e3d6000fd5b505050506040513d601f19601f82011682018060405250810190610b6e9190613eb6565b905060008060010160009054906101000a900473ffffffffffffffffffffffffffffffffffffffff1673ffffffffffffffffffffffffffffffffffffffff1663e6a1e8887f0000000000000000000000000000000000000000000000000000000000000000307f00000000000000000000000000000000000000000000000000000000000000006040518463ffffffff1660e01b8152600401610c1393929190613d1e565b608060405180830381865afa158015610c30573d6000803e3d6000fd5b505050506040513d601f19601f82011682018060405250810190610c549190613d96565b5050915050610cf97f00000000000000000000000000000000000000000000000000000000000000007f0000000000000000000000000000000000000000000000000000000000000000610ca661073a565b7fffffffffffffffffffffffffffffffffffffffffffffffffffffffffffffffff8587610cd39190613ee3565b610cdd9190613f47565b610ce79190613ee3565b6000611cfc909392919063ffffffff16565b610d38337f0000000000000000000000000000000000000000000000000000000000000000610d2661073a565b6000611d5c909392919063ffffffff16565b6001600260146101000a81548160ff02191690831515021790555033600260006101000a81548173ffffffffffffffffffffffffffffffffffffffff021916908373ffffffffffffffffffffffffffffffffffffffff16021790555042600381905550505050565b60008060035442610db19190613f84565b622819a07f0000000000000000000000000000000000000000000000000000000000000000610de09190613aa5565b610dea9190613fb8565b905060008113610dfe576000915050610e18565b610e0661073a565b600b0b81610e149190613ffb565b9150505b90565b7f000000000000000000000000000000000000000000000000000000000000000081565b7f000000000000000000000000000000000000000000000000000000000000000081565b7f000000000000000000000000000000000000000000000000000000000000000081565b600260009054906101000a900473ffffffffffffffffffffffffffffffffffffffff1681565b60008060010160009054906101000a900473ffffffffffffffffffffffffffffffffffffffff1673ffffffffffffffffffffffffffffffffffffffff1663e6a1e8887f000000000000000000000000000000000000000000000000000000000000000030600260009054906101000a900473ffffffffffffffffffffffffffffffffffffffff166040518463ffffffff1660e01b8152600401610f5293929190613d1e565b608060405180830381865afa158015610f6f573d6000803e3d6000fd5b505050506040513d601f19601f82011682018060405250810190610f939190613d96565b505091505060008060010160009054906101000a900473ffffffffffffffffffffffffffffffffffffffff1673ffffffffffffffffffffffffffffffffffffffff1663e6a1e8887f0000000000000000000000000000000000000000000000000000000000000000307f00000000000000000000000000000000000000000000000000000000000000006040518463ffffffff1660e01b815260040161103b93929190613d1e565b608060405180830381865afa158015611058573d6000803e3d6000fd5b505050506040513d601f19601f8201168201806040525081019061107c9190613d96565b5050915050600260009054906101000a900473ffffffffffffffffffffffffffffffffffffffff1673ffffffffffffffffffffffffffffffffffffffff163373ffffffffffffffffffffffffffffffffffffffff16036111b35761113030600260009054906101000a900473ffffffffffffffffffffffffffffffffffffffff167f00000000000000000000000000000000000000000000000000000000000000006000611dbc909392919063ffffffff16565b6111937f00000000000000000000000000000000000000000000000000000000000000007f00000000000000000000000000000000000000000000000000000000000000008484611181919061403d565b6000611cfc909392919063ffffffff16565b6000600260146101000a81548160ff0219169083151502179055506113e3565b6111bb610da0565b8310156111fd576040517f08c379a00000000000000000000000000000000000000000000000000000000081526004016111f4906140ed565b60405180910390fd5b6000611207610da0565b11611247576040517f08c379a000000000000000000000000000000000000000000000000000000000815260040161123e9061417f565b60405180910390fd5b7f000000000000000000000000000000000000000000000000000000000000000073ffffffffffffffffffffffffffffffffffffffff166323b872dd33600260009054906101000a900473ffffffffffffffffffffffffffffffffffffffff16866040518463ffffffff1660e01b81526004016112c693929190613dfd565b6020604051808303816000875af11580156112e5573d6000803e3d6000fd5b505050506040513d601f19601f820116820180604052508101906113099190613e60565b5061136430600260009054906101000a900473ffffffffffffffffffffffffffffffffffffffff167f00000000000000000000000000000000000000000000000000000000000000006000611dbc909392919063ffffffff16565b6113c77f00000000000000000000000000000000000000000000000000000000000000007f000000000000000000000000000000000000000000000000000000000000000084846113b5919061403d565b6000611cfc909392919063ffffffff16565b6000600260146101000a81548160ff0219169083151502179055505b505050565b60008060000160009054906101000a900473ffffffffffffffffffffffffffffffffffffffff16908060010160009054906101000a900473ffffffffffffffffffffffffffffffffffffffff16905082565b6060898961144782611864565b611486576040517f08c379a000000000000000000000000000000000000000000000000000000000815260040161147d906138c6565b60405180910390fd5b61148f816118bc565b6114ce576040517f08c379a00000000000000000000000000000000000000000000000000000000081526004016114c590613958565b60405180910390fd5b6000800160009054906101000a900473ffffffffffffffffffffffffffffffffffffffff1673ffffffffffffffffffffffffffffffffffffffff163373ffffffffffffffffffffffffffffffffffffffff1614611560576040517f08c379a0000000000000000000000000000000000000000000000000000000008152600401611557906139c4565b60405180910390fd5b61156a8585611956565b925050509998505050505050505050565b7f000000000000000000000000000000000000000000000000000000000000000081565b60006115a9610da0565b11156115b457600080fd5b60008060010160009054906101000a900473ffffffffffffffffffffffffffffffffffffffff1673ffffffffffffffffffffffffffffffffffffffff1663e6a1e8887f000000000000000000000000000000000000000000000000000000000000000030600260009054906101000a900473ffffffffffffffffffffffffffffffffffffffff166040518463ffffffff1660e01b815260040161165993929190613d1e565b608060405180830381865afa158015611676573d6000803e3d6000fd5b505050506040513d601f19601f8201168201806040525081019061169a9190613d96565b50509150506116f930600260009054906101000a900473ffffffffffffffffffffffffffffffffffffffff167f00000000000000000000000000000000000000000000000000000000000000006000611dbc909392919063ffffffff16565b60008060010160009054906101000a900473ffffffffffffffffffffffffffffffffffffffff1673ffffffffffffffffffffffffffffffffffffffff1663e6a1e8887f0000000000000000000000000000000000000000000000000000000000000000307f00000000000000000000000000000000000000000000000000000000000000006040518463ffffffff1660e01b815260040161179c93929190613d1e565b608060405180830381865afa1580156117b9573d6000803e3d6000fd5b505050506040513d601f19601f820116820180604052508101906117dd9190613d96565b50509150506118457f00000000000000000000000000000000000000000000000000000000000000007f00000000000000000000000000000000000000000000000000000000000000008484611833919061403d565b6000611cfc909392919063ffffffff16565b6000600260146101000a81548160ff0219169083151502179055505050565b60007f000000000000000000000000000000000000000000000000000000000000000073ffffffffffffffffffffffffffffffffffffffff168273ffffffffffffffffffffffffffffffffffffffff16149050919050565b60007fa9214cc96615e0085d3bb077758db69497dc2dce3b2b1e97bc93c3d18d83efd38273ffffffffffffffffffffffffffffffffffffffff16637730599e6040518163ffffffff1660e01b8152600401602060405180830381865afa15801561192a573d6000803e3d6000fd5b505050506040513d601f19601f8201168201806040525081019061194e91906141b4565b149050919050565b606082828080601f016020809104026020016040519081016040528093929190818152602001838380828437600081840152601f19601f82011690508083019250505050505050905060006119a961073a565b905060008060010160009054906101000a900473ffffffffffffffffffffffffffffffffffffffff1673ffffffffffffffffffffffffffffffffffffffff1663e8e7e2d17f0000000000000000000000000000000000000000000000000000000000000000306040518363ffffffff1660e01b8152600401611a2c929190613e8d565b602060405180830381865afa158015611a49573d6000803e3d6000fd5b505050506040513d601f19601f82011682018060405250810190611a6d9190613eb6565b905060008060010160009054906101000a900473ffffffffffffffffffffffffffffffffffffffff1673ffffffffffffffffffffffffffffffffffffffff1663e6a1e8887f000000000000000000000000000000000000000000000000000000000000000030600260009054906101000a900473ffffffffffffffffffffffffffffffffffffffff166040518463ffffffff1660e01b8152600401611b1493929190613d1e565b608060405180830381865afa158015611b31573d6000803e3d6000fd5b505050506040513d601f19601f82011682018060405250810190611b559190613d96565b505091505060008060010160009054906101000a900473ffffffffffffffffffffffffffffffffffffffff1673ffffffffffffffffffffffffffffffffffffffff1663e6a1e8887f0000000000000000000000000000000000000000000000000000000000000000307f00000000000000000000000000000000000000000000000000000000000000006040518463ffffffff1660e01b8152600401611bfd93929190613d1e565b608060405180830381865afa158015611c1a573d6000803e3d6000fd5b505050506040513d601f19601f82011682018060405250810190611c3e9190613d96565b505091505060008183611c51919061403d565b905060008185611c61919061403d565b9050600081600b0b1215611c9e577fffffffffffffffffffffffffffffffffffffffffffffffffffffffffffffffff81611c9b9190613f47565b90505b6000600b0b81600b0b03611cbe57611cb7898986611e1c565b9650611cf0565b6000600b0b82600b0b14611ce057611cd98989888785611f33565b9650611cef565b611cec89898884612388565b96505b5b50505050505092915050565b611d5684848484600067ffffffffffffffff811115611d1e57611d1d6141e1565b5b6040519080825280601f01601f191660200182016040528015611d505781602001600182028036833780820191505090505b50612653565b50505050565b611db684848484600067ffffffffffffffff811115611d7e57611d7d6141e1565b5b6040519080825280601f01601f191660200182016040528015611db05781602001600182028036833780820191505090505b5061280d565b50505050565b611e1684848484600067ffffffffffffffff811115611dde57611ddd6141e1565b5b6040519080825280601f01601f191660200182016040528015611e105781602001600182028036833780820191505090505b506129c7565b50505050565b606083838080601f016020809104026020016040519081016040528093929190818152602001838380828437600081840152601f19601f820116905080830192505050505050509050600082600b0b1315611ed057611ecd8130600260009054906101000a900473ffffffffffffffffffffffffffffffffffffffff167f00000000000000000000000000000000000000000000000000000000000000006000612b8190949392919063ffffffff16565b90505b611f2a81307f00000000000000000000000000000000000000000000000000000000000000007f00000000000000000000000000000000000000000000000000000000000000006000612b8190949392919063ffffffff16565b90509392505050565b606085858080601f016020809104026020016040519081016040528093929190818152602001838380828437600081840152601f19601f82011690508083019250505050505050905060008060010160009054906101000a900473ffffffffffffffffffffffffffffffffffffffff1673ffffffffffffffffffffffffffffffffffffffff1663e6a1e8887f0000000000000000000000000000000000000000000000000000000000000000307f00000000000000000000000000000000000000000000000000000000000000006040518463ffffffff1660e01b815260040161201f93929190613d1e565b608060405180830381865afa15801561203c573d6000803e3d6000fd5b505050506040513d601f19601f820116820180604052508101906120609190613d96565b5050915050600085846120739190613ee3565b600b0b131561222d57600084600b0b13156121cb57600081600b0b1315612100576120f9827f00000000000000000000000000000000000000000000000000000000000000007f000000000000000000000000000000000000000000000000000000000000000088876120e69190613ee3565b6000612be990949392919063ffffffff16565b9150612168565b612165827f00000000000000000000000000000000000000000000000000000000000000007f000000000000000000000000000000000000000000000000000000000000000088876121529190613ee3565b6000612c5190949392919063ffffffff16565b91505b6121c482600260009054906101000a900473ffffffffffffffffffffffffffffffffffffffff167f0000000000000000000000000000000000000000000000000000000000000000886000612be990949392919063ffffffff16565b9150612228565b612225827f00000000000000000000000000000000000000000000000000000000000000007f0000000000000000000000000000000000000000000000000000000000000000866000612be990949392919063ffffffff16565b91505b61237e565b6000858461223b9190613ee3565b600b0b1315801561224f5750600083600b0b135b1561237d57600084600b0b131561231f576122ba82307f00000000000000000000000000000000000000000000000000000000000000007f00000000000000000000000000000000000000000000000000000000000000006000612b8190949392919063ffffffff16565b915061231882600260009054906101000a900473ffffffffffffffffffffffffffffffffffffffff167f0000000000000000000000000000000000000000000000000000000000000000866000612be990949392919063ffffffff16565b915061237c565b612379827f00000000000000000000000000000000000000000000000000000000000000007f0000000000000000000000000000000000000000000000000000000000000000866000612be990949392919063ffffffff16565b91505b5b5b5095945050505050565b606084848080601f016020809104026020016040519081016040528093929190818152602001838380828437600081840152601f19601f82011690508083019250505050505050905060007f000000000000000000000000000000000000000000000000000000000000000073ffffffffffffffffffffffffffffffffffffffff16633f6c923a87876040518363ffffffff1660e01b815260040161242e92919061424c565b600060405180830381865afa15801561244b573d6000803e3d6000fd5b505050506040513d6000823e3d601f19601f8201168201806040525081019061247491906145a4565b6060015190507f000000000000000000000000000000000000000000000000000000000000000073ffffffffffffffffffffffffffffffffffffffff168173ffffffffffffffffffffffffffffffffffffffff1614612508576040517f08c379a00000000000000000000000000000000000000000000000000000000081526004016124ff9061465f565b60405180910390fd5b60011515600260149054906101000a900460ff161515036125ed57612588827f00000000000000000000000000000000000000000000000000000000000000007f000000000000000000000000000000000000000000000000000000000000000087876125759190613ee3565b6000612c5190949392919063ffffffff16565b91506125e682600260009054906101000a900473ffffffffffffffffffffffffffffffffffffffff167f0000000000000000000000000000000000000000000000000000000000000000876000612c5190949392919063ffffffff16565b915061264a565b612647827f00000000000000000000000000000000000000000000000000000000000000007f0000000000000000000000000000000000000000000000000000000000000000866000612c5190949392919063ffffffff16565b91505b50949350505050565b8460000160009054906101000a900473ffffffffffffffffffffffffffffffffffffffff1673ffffffffffffffffffffffffffffffffffffffff166339255d5b8660010160009054906101000a900473ffffffffffffffffffffffffffffffffffffffff168760010160009054906101000a900473ffffffffffffffffffffffffffffffffffffffff1673ffffffffffffffffffffffffffffffffffffffff166350209a62878988600067ffffffffffffffff811115612716576127156141e1565b5b6040519080825280601f01601f1916602001820160405280156127485781602001600182028036833780820191505090505b5060405160240161275c94939291906146a0565b604051602081830303815290604052915060e01b6020820180517bffffffffffffffffffffffffffffffffffffffffffffffffffffffff8381831617835250505050846040518463ffffffff1660e01b81526004016127bd939291906146ec565b6000604051808303816000875af11580156127dc573d6000803e3d6000fd5b505050506040513d6000823e3d601f19601f820116820180604052508101906128059190614731565b505050505050565b8460000160009054906101000a900473ffffffffffffffffffffffffffffffffffffffff1673ffffffffffffffffffffffffffffffffffffffff166339255d5b8660010160009054906101000a900473ffffffffffffffffffffffffffffffffffffffff168760010160009054906101000a900473ffffffffffffffffffffffffffffffffffffffff1673ffffffffffffffffffffffffffffffffffffffff166362fc305e878988600067ffffffffffffffff8111156128d0576128cf6141e1565b5b6040519080825280601f01601f1916602001820160405280156129025781602001600182028036833780820191505090505b5060405160240161291694939291906146a0565b604051602081830303815290604052915060e01b6020820180517bffffffffffffffffffffffffffffffffffffffffffffffffffffffff8381831617835250505050846040518463ffffffff1660e01b8152600401612977939291906146ec565b6000604051808303816000875af1158015612996573d6000803e3d6000fd5b505050506040513d6000823e3d601f19601f820116820180604052508101906129bf9190614731565b505050505050565b8460000160009054906101000a900473ffffffffffffffffffffffffffffffffffffffff1673ffffffffffffffffffffffffffffffffffffffff166339255d5b8660010160009054906101000a900473ffffffffffffffffffffffffffffffffffffffff168760010160009054906101000a900473ffffffffffffffffffffffffffffffffffffffff1673ffffffffffffffffffffffffffffffffffffffff1663b4b333c6868989600067ffffffffffffffff811115612a8a57612a896141e1565b5b6040519080825280601f01601f191660200182016040528015612abc5781602001600182028036833780820191505090505b50604051602401612ad0949392919061477a565b604051602081830303815290604052915060e01b6020820180517bffffffffffffffffffffffffffffffffffffffffffffffffffffffff8381831617835250505050846040518463ffffffff1660e01b8152600401612b31939291906146ec565b6000604051808303816000875af1158015612b50573d6000803e3d6000fd5b505050506040513d6000823e3d601f19601f82011682018060405250810190612b799190614731565b505050505050565b6060612bde8686868686600067ffffffffffffffff811115612ba657612ba56141e1565b5b6040519080825280601f01601f191660200182016040528015612bd85781602001600182028036833780820191505090505b50612cb9565b905095945050505050565b6060612c468686868686600067ffffffffffffffff811115612c0e57612c0d6141e1565b5b6040519080825280601f01601f191660200182016040528015612c405781602001600182028036833780820191505090505b50612e7e565b905095945050505050565b6060612cae8686868686600067ffffffffffffffff811115612c7657612c756141e1565b5b6040519080825280601f01601f191660200182016040528015612ca85781602001600182028036833780820191505090505b50613043565b905095945050505050565b60608660000160009054906101000a900473ffffffffffffffffffffffffffffffffffffffff1673ffffffffffffffffffffffffffffffffffffffff16634329d2938860010160009054906101000a900473ffffffffffffffffffffffffffffffffffffffff168960010160009054906101000a900473ffffffffffffffffffffffffffffffffffffffff1673ffffffffffffffffffffffffffffffffffffffff1663b4b333c6878a8a600067ffffffffffffffff811115612d7e57612d7d6141e1565b5b6040519080825280601f01601f191660200182016040528015612db05781602001600182028036833780820191505090505b50604051602401612dc4949392919061477a565b604051602081830303815290604052915060e01b6020820180517bffffffffffffffffffffffffffffffffffffffffffffffffffffffff8381831617835250505050858a6040518563ffffffff1660e01b8152600401612e2794939291906147c6565b6000604051808303816000875af1158015612e46573d6000803e3d6000fd5b505050506040513d6000823e3d601f19601f82011682018060405250810190612e6f9190614820565b50809150509695505050505050565b60608660000160009054906101000a900473ffffffffffffffffffffffffffffffffffffffff1673ffffffffffffffffffffffffffffffffffffffff16634329d2938860010160009054906101000a900473ffffffffffffffffffffffffffffffffffffffff168960010160009054906101000a900473ffffffffffffffffffffffffffffffffffffffff1673ffffffffffffffffffffffffffffffffffffffff166350209a62888a89600067ffffffffffffffff811115612f4357612f426141e1565b5b6040519080825280601f01601f191660200182016040528015612f755781602001600182028036833780820191505090505b50604051602401612f8994939291906146a0565b604051602081830303815290604052915060e01b6020820180517bffffffffffffffffffffffffffffffffffffffffffffffffffffffff8381831617835250505050858a6040518563ffffffff1660e01b8152600401612fec94939291906147c6565b6000604051808303816000875af115801561300b573d6000803e3d6000fd5b505050506040513d6000823e3d601f19601f820116820180604052508101906130349190614820565b50809150509695505050505050565b60608660000160009054906101000a900473ffffffffffffffffffffffffffffffffffffffff1673ffffffffffffffffffffffffffffffffffffffff16634329d2938860010160009054906101000a900473ffffffffffffffffffffffffffffffffffffffff168960010160009054906101000a900473ffffffffffffffffffffffffffffffffffffffff1673ffffffffffffffffffffffffffffffffffffffff166362fc305e888a89600067ffffffffffffffff811115613108576131076141e1565b5b6040519080825280601f01601f19166020018201604052801561313a5781602001600182028036833780820191505090505b5060405160240161314e94939291906146a0565b604051602081830303815290604052915060e01b6020820180517bffffffffffffffffffffffffffffffffffffffffffffffffffffffff8381831617835250505050858a6040518563ffffffff1660e01b81526004016131b194939291906147c6565b6000604051808303816000875af11580156131d0573d6000803e3d6000fd5b505050506040513d6000823e3d601f19601f820116820180604052508101906131f99190614820565b50809150509695505050505050565b6000819050919050565b61321b81613208565b82525050565b60006020820190506132366000830184613212565b92915050565b6000604051905090565b600080fd5b600080fd5b600073ffffffffffffffffffffffffffffffffffffffff82169050919050565b600061327b82613250565b9050919050565b600061328d82613270565b9050919050565b61329d81613282565b81146132a857600080fd5b50565b6000813590506132ba81613294565b92915050565b6132c981613270565b81146132d457600080fd5b50565b6000813590506132e6816132c0565b92915050565b6132f581613208565b811461330057600080fd5b50565b600081359050613312816132ec565b92915050565b600080fd5b600080fd5b600080fd5b60008083601f84011261333d5761333c613318565b5b8235905067ffffffffffffffff81111561335a5761335961331d565b5b60208301915083600182028301111561337657613375613322565b5b9250929050565b600080600080600080600080600060c08a8c03121561339f5761339e613246565b5b60006133ad8c828d016132ab565b99505060206133be8c828d016132d7565b98505060406133cf8c828d01613303565b97505060608a013567ffffffffffffffff8111156133f0576133ef61324b565b5b6133fc8c828d01613327565b965096505060808a013567ffffffffffffffff81111561341f5761341e61324b565b5b61342b8c828d01613327565b945094505060a08a013567ffffffffffffffff81111561344e5761344d61324b565b5b61345a8c828d01613327565b92509250509295985092959850929598565b600081519050919050565b600082825260208201905092915050565b60005b838110156134a657808201518184015260208101905061348b565b60008484015250505050565b6000601f19601f8301169050919050565b60006134ce8261346c565b6134d88185613477565b93506134e8818560208601613488565b6134f1816134b2565b840191505092915050565b6000602082019050818103600083015261351681846134c3565b905092915050565b600080600080600080600060a0888a03121561353d5761353c613246565b5b600061354b8a828b016132ab565b975050602061355c8a828b016132d7565b965050604061356d8a828b01613303565b955050606088013567ffffffffffffffff81111561358e5761358d61324b565b5b61359a8a828b01613327565b9450945050608088013567ffffffffffffffff8111156135bd576135bc61324b565b5b6135c98a828b01613327565b925092505092959891949750929550565b60008115159050919050565b6135ef816135da565b82525050565b600060208201905061360a60008301846135e6565b92915050565b6000819050919050565b600061363561363061362b84613250565b613610565b613250565b9050919050565b60006136478261361a565b9050919050565b60006136598261363c565b9050919050565b6136698161364e565b82525050565b60006020820190506136846000830184613660565b92915050565b600081600b0b9050919050565b6136a08161368a565b82525050565b60006020820190506136bb6000830184613697565b92915050565b60008160000b9050919050565b6136d7816136c1565b82525050565b60006020820190506136f260008301846136ce565b92915050565b61370181613270565b82525050565b600060208201905061371c60008301846136f8565b92915050565b6000819050919050565b61373581613722565b82525050565b6000602082019050613750600083018461372c565b92915050565b6000819050919050565b61376981613756565b82525050565b60006020820190506137846000830184613760565b92915050565b61379381613722565b811461379e57600080fd5b50565b6000813590506137b08161378a565b92915050565b6000602082840312156137cc576137cb613246565b5b60006137da848285016137a1565b91505092915050565b60006137ee8261363c565b9050919050565b6137fe816137e3565b82525050565b600061380f8261363c565b9050919050565b61381f81613804565b82525050565b600060408201905061383a60008301856137f5565b6138476020830184613816565b9392505050565b600060208201905061386360008301846137f5565b92915050565b600082825260208201905092915050565b7f5265646972656374416c6c3a206e6f7420616363657074656420746f6b656e00600082015250565b60006138b0601f83613869565b91506138bb8261387a565b602082019050919050565b600060208201905081810360008301526138df816138a3565b9050919050565b7f5265646972656374416c6c3a206f6e6c7920434641763120737570706f72746560008201527f6400000000000000000000000000000000000000000000000000000000000000602082015250565b6000613942602183613869565b915061394d826138e6565b604082019050919050565b6000602082019050818103600083015261397181613935565b9050919050565b7f4f6e6c7920686f73742063616e2063616c6c2063616c6c6261636b0000000000600082015250565b60006139ae601b83613869565b91506139b982613978565b602082019050919050565b600060208201905081810360008301526139dd816139a1565b9050919050565b7f556e737570706f727465642063616c6c6261636b202d204265666f726520416760008201527f7265656d656e7420437265617465640000000000000000000000000000000000602082015250565b6000613a40602f83613869565b9150613a4b826139e4565b604082019050919050565b60006020820190508181036000830152613a6f81613a33565b9050919050565b7f4e487b7100000000000000000000000000000000000000000000000000000000600052601160045260246000fd5b6000613ab082613756565b9150613abb83613756565b9250828202613ac981613756565b91507f80000000000000000000000000000000000000000000000000000000000000008414600084121615613b0157613b00613a76565b5b8282058414831517613b1657613b15613a76565b5b5092915050565b7f4e487b7100000000000000000000000000000000000000000000000000000000600052601260045260246000fd5b6000613b5782613756565b9150613b6283613756565b925082613b7257613b71613b1d565b5b600160000383147f800000000000000000000000000000000000000000000000000000000000000083141615613bab57613baa613a76565b5b828205905092915050565b6000613bc182613756565b9150613bcc83613756565b925082820190508281121560008312168382126000841215161715613bf457613bf3613a76565b5b92915050565b7f556e737570706f727465642063616c6c6261636b202d20204265666f7265204160008201527f677265656d656e74205465726d696e6174656400000000000000000000000000602082015250565b6000613c56603383613869565b9150613c6182613bfa565b604082019050919050565b60006020820190508181036000830152613c8581613c49565b9050919050565b7f556e737570706f727465642063616c6c6261636b202d204265666f726520416760008201527f7265656d656e7420757064617465640000000000000000000000000000000000602082015250565b6000613ce8602f83613869565b9150613cf382613c8c565b604082019050919050565b60006020820190508181036000830152613d1781613cdb565b9050919050565b6000606082019050613d336000830186613660565b613d4060208301856136f8565b613d4d60408301846136f8565b949350505050565b600081519050613d648161378a565b92915050565b613d738161368a565b8114613d7e57600080fd5b50565b600081519050613d9081613d6a565b92915050565b60008060008060808587031215613db057613daf613246565b5b6000613dbe87828801613d55565b9450506020613dcf87828801613d81565b9350506040613de087828801613d55565b9250506060613df187828801613d55565b91505092959194509250565b6000606082019050613e1260008301866136f8565b613e1f60208301856136f8565b613e2c604083018461372c565b949350505050565b613e3d816135da565b8114613e4857600080fd5b50565b600081519050613e5a81613e34565b92915050565b600060208284031215613e7657613e75613246565b5b6000613e8484828501613e4b565b91505092915050565b6000604082019050613ea26000830185613660565b613eaf60208301846136f8565b9392505050565b600060208284031215613ecc57613ecb613246565b5b6000613eda84828501613d81565b91505092915050565b6000613eee8261368a565b9150613ef98361368a565b925082820390506b7fffffffffffffffffffffff81137fffffffffffffffffffffffffffffffffffffffff80000000000000000000000082121715613f4157613f40613a76565b5b92915050565b6000613f528261368a565b9150613f5d8361368a565b9250828202613f6b8161368a565b9150808214613f7d57613f7c613a76565b5b5092915050565b6000613f8f82613722565b9150613f9a83613722565b9250828203905081811115613fb257613fb1613a76565b5b92915050565b6000613fc382613756565b9150613fce83613756565b9250828203905081811260008412168282136000851215161715613ff557613ff4613a76565b5b92915050565b600061400682613722565b915061401183613722565b925082820261401f81613722565b9150828204841483151761403657614035613a76565b5b5092915050565b60006140488261368a565b91506140538361368a565b925082820190507fffffffffffffffffffffffffffffffffffffffff80000000000000000000000081126b7fffffffffffffffffffffff8213171561409b5761409a613a76565b5b92915050565b7f696e7375662066756e6473000000000000000000000000000000000000000000600082015250565b60006140d7600b83613869565b91506140e2826140a1565b602082019050919050565b60006020820190508181036000830152614106816140ca565b9050919050565b7f796f752073686f756c642063616c6c20636c6f73654f70656e4c6f616e28292060008201527f696e737465616400000000000000000000000000000000000000000000000000602082015250565b6000614169602783613869565b91506141748261410d565b604082019050919050565b600060208201905081810360008301526141988161415c565b9050919050565b6000815190506141ae816132ec565b92915050565b6000602082840312156141ca576141c9613246565b5b60006141d88482850161419f565b91505092915050565b7f4e487b7100000000000000000000000000000000000000000000000000000000600052604160045260246000fd5b82818337600083830152505050565b600061422b8385613477565b9350614238838584614210565b614241836134b2565b840190509392505050565b6000602082019050818103600083015261426781848661421f565b90509392505050565b600080fd5b61427e826134b2565b810181811067ffffffffffffffff8211171561429d5761429c6141e1565b5b80604052505050565b60006142b061323c565b90506142bc8282614275565b919050565b600080fd5b600060ff82169050919050565b6142dc816142c6565b81146142e757600080fd5b50565b6000815190506142f9816142d3565b92915050565b60008151905061430e816132c0565b92915050565b60007fffffffff0000000000000000000000000000000000000000000000000000000082169050919050565b61434981614314565b811461435457600080fd5b50565b60008151905061436681614340565b92915050565b600080fd5b600067ffffffffffffffff82111561438c5761438b6141e1565b5b614395826134b2565b9050602081019050919050565b60006143b56143b084614371565b6142a6565b9050828152602081018484840111156143d1576143d061436c565b5b6143dc848285613488565b509392505050565b600082601f8301126143f9576143f8613318565b5b81516144098482602086016143a2565b91505092915050565b61441b81613756565b811461442657600080fd5b50565b60008151905061443881614412565b92915050565b600061444982613270565b9050919050565b6144598161443e565b811461446457600080fd5b50565b60008151905061447681614450565b92915050565b6000610160828403121561449357614492614270565b5b61449e6101606142a6565b905060006144ae848285016142ea565b60008301525060206144c2848285016142ea565b60208301525060406144d684828501613d55565b60408301525060606144ea848285016142ff565b60608301525060806144fe84828501614357565b60808301525060a082015167ffffffffffffffff811115614522576145216142c1565b5b61452e848285016143e4565b60a08301525060c061454284828501613d55565b60c08301525060e061455684828501613d55565b60e08301525061010061456b84828501614429565b61010083015250610120614581848285016142ff565b6101208301525061014061459784828501614467565b6101408301525092915050565b6000602082840312156145ba576145b9613246565b5b600082015167ffffffffffffffff8111156145d8576145d761324b565b5b6145e48482850161447c565b91505092915050565b7f73656e646572206f6620666c6f77206d7573742062652074686520656d706c6f60008201527f7965720000000000000000000000000000000000000000000000000000000000602082015250565b6000614649602383613869565b9150614654826145ed565b604082019050919050565b600060208201905081810360008301526146788161463c565b9050919050565b600061468a8261363c565b9050919050565b61469a8161467f565b82525050565b60006080820190506146b56000830187614691565b6146c260208301866136f8565b6146cf6040830185613697565b81810360608301526146e181846134c3565b905095945050505050565b60006060820190506147016000830186613816565b818103602083015261471381856134c3565b9050818103604083015261472781846134c3565b9050949350505050565b60006020828403121561474757614746613246565b5b600082015167ffffffffffffffff8111156147655761476461324b565b5b614771848285016143e4565b91505092915050565b600060808201905061478f6000830187614691565b61479c60208301866136f8565b6147a960408301856136f8565b81810360608301526147bb81846134c3565b905095945050505050565b60006080820190506147db6000830187613816565b81810360208301526147ed81866134c3565b9050818103604083015261480181856134c3565b9050818103606083015261481581846134c3565b905095945050505050565b6000806040838503121561483757614836613246565b5b600083015167ffffffffffffffff8111156148555761485461324b565b5b614861858286016143e4565b925050602083015167ffffffffffffffff8111156148825761488161324b565b5b61488e858286016143e4565b915050925092905056fea26469706673582212204a9e7e429454f0a327a03fe0fead2256bd9dbad6a667dd048a008552965c692b64736f6c63430008110033a26469706673582212205a6d4d7563231903c3a322f413d964eaa11a93c407068e56ea9b6f1aa5c7607a64736f6c63430008110033",
    "linkReferences": {},
    "deployedLinkReferences": {}
}